{
  "contractName": "vendingMachine",
  "abi": [
    {
      "inputs": [],
      "stateMutability": "nonpayable",
      "type": "constructor"
    },
    {
      "inputs": [
        {
          "internalType": "address",
          "name": "",
          "type": "address"
        }
      ],
      "name": "balances",
      "outputs": [
        {
          "internalType": "uint256",
          "name": "",
          "type": "uint256"
        }
      ],
      "stateMutability": "view",
      "type": "function",
      "constant": true
    },
    {
      "inputs": [],
      "name": "owner",
      "outputs": [
        {
          "internalType": "address",
          "name": "",
          "type": "address"
        }
      ],
      "stateMutability": "view",
      "type": "function",
      "constant": true
    },
    {
      "inputs": [],
      "name": "getMachineBalnce",
      "outputs": [
        {
          "internalType": "uint256",
          "name": "",
          "type": "uint256"
        }
      ],
      "stateMutability": "view",
      "type": "function",
      "constant": true
    },
    {
      "inputs": [
        {
          "internalType": "uint256",
          "name": "amount",
          "type": "uint256"
        }
      ],
      "name": "restock",
      "outputs": [],
      "stateMutability": "nonpayable",
      "type": "function"
    },
    {
      "inputs": [
        {
          "internalType": "uint256",
          "name": "amount",
          "type": "uint256"
        }
      ],
      "name": "purchase",
      "outputs": [],
      "stateMutability": "payable",
      "type": "function",
      "payable": true
    }
  ],
  "bytecode": "0x608060405234801561001057600080fd5b50600080546001600160a01b0319163317815530815260016020526040902060649055610387806100426000396000f3fe60806040526004361061004a5760003560e01c806327e235e31461004f5780638da5cb5b1461008f5780639f9a2999146100c7578063c21a702a146100e9578063efef39a11461010b575b600080fd5b34801561005b57600080fd5b5061007c61006a3660046102af565b60016020526000908152604090205481565b6040519081526020015b60405180910390f35b34801561009b57600080fd5b506000546100af906001600160a01b031681565b6040516001600160a01b039091168152602001610086565b3480156100d357600080fd5b503060009081526001602052604090205461007c565b3480156100f557600080fd5b506101096101043660046102df565b61011e565b005b6101096101193660046102df565b6101b4565b6000546001600160a01b0316331461018d5760405162461bcd60e51b815260206004820152602760248201527f4f6e6c7920746865206f776e65722063616e20726573746f636b2074686973206044820152666d616368696e6560c81b60648201526084015b60405180910390fd5b30600090815260016020526040812080548392906101ac90849061030e565b909155505050565b6101c681671bc16d674ec80000610327565b34101561020d5760405162461bcd60e51b8152602060048201526015602482015274596f75206d7573742070617920322065746865727360581b6044820152606401610184565b3060009081526001602052604090205481111561026c5760405162461bcd60e51b815260206004820152601d60248201527f4e6f7420656e6f7567682062616c616e636520696e204d616368696e650000006044820152606401610184565b306000908152600160205260408120805483929061028b90849061033e565b909155505033600090815260016020526040812080548392906101ac90849061030e565b6000602082840312156102c157600080fd5b81356001600160a01b03811681146102d857600080fd5b9392505050565b6000602082840312156102f157600080fd5b5035919050565b634e487b7160e01b600052601160045260246000fd5b80820180821115610321576103216102f8565b92915050565b8082028115828204841417610321576103216102f8565b81810381811115610321576103216102f856fea264697066735822122065e9005ebe0d123cc203ded4a74d26abdd293108d3cedacbfdaac9d3ebefb92764736f6c63430008110033",
  "immutableReferences": {},
  "source": "pragma solidity ^0.8.17;\r\n\r\ncontract vendingMachine {\r\n    address public owner;\r\n    mapping (address => uint256) public balances;\r\n\r\n    constructor() {\r\n        owner = msg.sender;\r\n        balances[address(this)] = 100;\r\n    }\r\n\r\n    function getMachineBalnce() public view returns (uint) {\r\n        return balances[address(this)];\r\n    }\r\n\r\n    function restock(uint amount) public {\r\n        require(msg.sender == owner, \"Only the owner can restock this machine\");\r\n        balances[address(this)] += amount;\r\n    }\r\n\r\n    function purchase(uint amount) public payable {\r\n        require(msg.value >= amount * 2 ether, \"You must pay 2 ethers\");\r\n        require(balances[address(this)] >= amount, \"Not enough balance in Machine\");\r\n        balances[address(this)] -= amount;\r\n        balances[msg.sender] += amount;\r\n    }\r\n}",
  "sourcePath": "D:\\Blockchain Roadmap\\Smart Contract using truffle\\vendingMachine\\contracts\\vendingmachine.sol",
  "compiler": {
    "name": "solc",
    "version": "0.8.17+commit.8df45f5f.Emscripten.clang"
  },
  "schemaVersion": "3.4.11",
  "updatedAt": "2023-01-29T06:31:38.191Z",
  "networkType": "ethereum",
  "devdoc": {
    "kind": "dev",
    "methods": {},
    "version": 1
  },
  "userdoc": {
    "kind": "user",
    "methods": {},
    "version": 1
  }
}